:060000000C942A000C9490
:1000060000000C9400000C9400000C9400000C946A
:1000160000000C9400000C9400000C9400000C945A
:1000260000000C9400000C9400000C9400000C944A
:1000360000000C9400000C9400000C9400000C943A
:1000460000000C9400000C9400000C940000F8943E
:10005600EE27ECBBF1E0FBBFEBBFE5BFF8E1F1BD7E
:10006600E1BD8DE0A2E0BB27ED938A95E9F780E03C
:1000760098E0A0E6ED930197E9F7EFE5EDBFE8E03C
:10008600EEBFC0E6D2E00C944800E0E0EBBBEABB72
:10009600E8BBE3E0E7BBE0E0E5BBECEFE4BBE0E0B8
:1000A600E2BBE1BBE3BFE2BFECBFEFBDEEBDEDBD22
:1000B600ECBDE7BDE6BDEBBDEABDE9BDE8BDE2BD11
:1000C600E5BDE4BDE3BDE5BFE4BFE9BFE0E8E8B9EF
:1000D600E0E0E0BFC198C09AC09B02C0C09801C0D2
:1000E600C09AC19B02C0C19801C0C19AAA9B02C016
:1000F600AA9801C0AA9AAB9B02C0AB9801C0AB9A62
:10010600AC9B02C0AC9801C0AC9AAD9B02C0AD9846
:1001160001C0AD9AAE9B02C0AE9801C0AE9AAF9B2D
:1001260002C0AF9801C0AF9AE4EFF1E0FA93EA9308
:100136000E949F00D1CFFFCFE991F991309639F017
:1001460080ED97E00197F1F7A8953197C9F70895E3
:00000001FF
