:0E0000000C942A000C9400000C9400000C9448
:10000E0000000C9400000C9400000C9400000C9462
:10001E0000000C9400000C9400000C9400000C9452
:10002E0000000C9400000C9400000C9400000C9442
:10003E0000000C9400000C9400000C9400000C9432
:10004E0000000C940000F894EE27ECBBF1E0FBBF2F
:10005E00EBBFE5BFF8E1F1BDE1BD8DE0A2E0BB274E
:10006E00ED938A95E9F780E098E0A0E6ED9301978D
:10007E00E9F7EFE5EDBFE8E0EEBFC0E6D2E00C94A5
:10008E004800E0E0EBBBEABBE8BBE3E0E7BBE0E047
:10009E00E5BBE4BBE2BBE1BBC198C09AC19B02C009
:1000AE00C19801C0C19AC09B02C0C09801C0C09A3D
:1000BE00A4EFB1E00E946500F1CFFFCF109639F0AA
:1000CE0080ED97E00197F1F7A8951197C9F708957C
:00000001FF
